:0600000000F02CEF0FF0F0
:101E4E0035EC0FF09DEC0FF0FDD7096A086A076AB2
:101E5E00066A000EF86E000127EF0FF0D388D38AC2
:101E6E00D38CC168939093929398939A92909396F1
:101E7E0092989282000E806E000E816E1200000EFD
:101E8E00056E000E046E09D0030E036E980EE82E3A
:101E9E00FED7032EFCD7044A052A0150045C0250DB
:101EAE000558D8B01200F0D7000E046E000E036E67
:101EBE008088060EE82EFED700D0809880B207D01C
:101ECE00FDD7034A042A260EE82EFED700D080B294
:101EDE00F8D703C001F004C002F01200E8CF01F001
:101EEE0014D08190818209D08180819202D081901C
:101EFE008182818808D0818081928198818A15D0D3
:101F0E00819081928198819A10D00150000AD8B4A4
:101F1E00E8D7010AD8B4E8D7030AD8B4E8D7010A3B
:101F2E00D8B4E9D7070AD8B4EBD712005BEC0FF0A0
:101F3E0001C00AF002C00BF0100E0A5C000E0B5826
:101F4E00D8A004D0000E75EC0FF052D0040E75EC34
:101F5E000FF0020E75EC0FF0030E026EE80E016E1E
:101F6E0046EC0FF0040E75EC0FF05BEC0FF001C0B9
:101F7E0006F002C007F0030E75EC0FF0070E026EAE
:101F8E00D00E016E46EC0FF0040E75EC0FF05BEC0C
:101F9E000FF001C008F002C009F0020E75EC0FF050
:101FAE00030E026EE80E016E46EC0FF0040E75EC99
:101FBE000FF00850065C09500758D8A00DD0020E3D
:101FCE0075EC0FF0030E026EE80E016E46EC0FF08C
:101FDE00040E75EC0FF00CD0030E75EC0FF0030E23
:101FEE00026EE80E016E46EC0FF0040E75EC0FF06B
:021FFE001200CF
:020000040020DA
:08000000FFFFFFFFFFFFFFFF00
:020000040030CA
:0E000000FF080C1EFF8001FF03C003E0034059
:00000001FF
